{
  "contractName": "HealthRiskStorage",
  "abi": [
    {
      "inputs": [],
      "stateMutability": "nonpayable",
      "type": "constructor"
    },
    {
      "inputs": [],
      "name": "admin",
      "outputs": [
        {
          "internalType": "address",
          "name": "",
          "type": "address"
        }
      ],
      "stateMutability": "view",
      "type": "function",
      "constant": true
    },
    {
      "inputs": [
        {
          "internalType": "string",
          "name": "_email",
          "type": "string"
        },
        {
          "internalType": "string",
          "name": "_riskLevel",
          "type": "string"
        },
        {
          "internalType": "string",
          "name": "_suggestion",
          "type": "string"
        },
        {
          "internalType": "string",
          "name": "_timestamp",
          "type": "string"
        }
      ],
      "name": "storeHealthData",
      "outputs": [],
      "stateMutability": "nonpayable",
      "type": "function"
    },
    {
      "inputs": [
        {
          "internalType": "string",
          "name": "_email",
          "type": "string"
        }
      ],
      "name": "getHealthData",
      "outputs": [
        {
          "components": [
            {
              "internalType": "string",
              "name": "riskLevel",
              "type": "string"
            },
            {
              "internalType": "string",
              "name": "suggestion",
              "type": "string"
            },
            {
              "internalType": "string",
              "name": "timestamp",
              "type": "string"
            },
            {
              "internalType": "string",
              "name": "email",
              "type": "string"
            }
          ],
          "internalType": "struct HealthRiskStorage.HealthData[]",
          "name": "",
          "type": "tuple[]"
        }
      ],
      "stateMutability": "view",
      "type": "function",
      "constant": true
    }
  ],
  "bytecode": "0x6080604052348015600f57600080fd5b50600080546001600160a01b031916331790556108c8806100316000396000f3fe608060405234801561001057600080fd5b50600436106100415760003560e01c80631742ba6a146100465780639bac18641461006f578063f851a44014610084575b600080fd5b610059610054366004610521565b6100af565b60405161006691906105ae565b60405180910390f35b61008261007d36600461066e565b610374565b005b600054610097906001600160a01b031681565b6040516001600160a01b039091168152602001610066565b60606001826040516100c1919061072e565b9081526020016040518091039020805480602002602001604051908101604052809291908181526020016000905b8282101561036957838290600052602060002090600402016040518060800160405290816000820180546101229061074a565b80601f016020809104026020016040519081016040528092919081815260200182805461014e9061074a565b801561019b5780601f106101705761010080835404028352916020019161019b565b820191906000526020600020905b81548152906001019060200180831161017e57829003601f168201915b505050505081526020016001820180546101b49061074a565b80601f01602080910402602001604051908101604052809291908181526020018280546101e09061074a565b801561022d5780601f106102025761010080835404028352916020019161022d565b820191906000526020600020905b81548152906001019060200180831161021057829003601f168201915b505050505081526020016002820180546102469061074a565b80601f01602080910402602001604051908101604052809291908181526020018280546102729061074a565b80156102bf5780601f10610294576101008083540402835291602001916102bf565b820191906000526020600020905b8154815290600101906020018083116102a257829003601f168201915b505050505081526020016003820180546102d89061074a565b80601f01602080910402602001604051908101604052809291908181526020018280546103049061074a565b80156103515780601f1061032657610100808354040283529160200191610351565b820191906000526020600020905b81548152906001019060200180831161033457829003601f168201915b505050505081525050815260200190600101906100ef565b505050509050919050565b6000546001600160a01b031633146103d25760405162461bcd60e51b815260206004820152601960248201527f4f6e6c792061646d696e2063616e2073746f7265206461746100000000000000604482015260640160405180910390fd5b6001846040516103e2919061072e565b90815260408051918290036020908101832060808401835286845283820186905291830184905260608301879052815460018101835560009283529120825160049092020190819061043490826107d3565b506020820151600182019061044990826107d3565b506040820151600282019061045e90826107d3565b506060820151600382019061047390826107d3565b50505050505050565b634e487b7160e01b600052604160045260246000fd5b600082601f8301126104a357600080fd5b813567ffffffffffffffff8111156104bd576104bd61047c565b604051601f8201601f19908116603f0116810167ffffffffffffffff811182821017156104ec576104ec61047c565b60405281815283820160200185101561050457600080fd5b816020850160208301376000918101602001919091529392505050565b60006020828403121561053357600080fd5b813567ffffffffffffffff81111561054a57600080fd5b61055684828501610492565b949350505050565b60005b83811015610579578181015183820152602001610561565b50506000910152565b6000815180845261059a81602086016020860161055e565b601f01601f19169290920160200192915050565b6000602082016020835280845180835260408501915060408160051b86010192506020860160005b8281101561066257603f1987860301845281518051608087526105fc6080880182610582565b9050602082015187820360208901526106158282610582565b9150506040820151878203604089015261062f8282610582565b91505060608201519150868103606088015261064b8183610582565b9650505060209384019391909101906001016105d6565b50929695505050505050565b6000806000806080858703121561068457600080fd5b843567ffffffffffffffff81111561069b57600080fd5b6106a787828801610492565b945050602085013567ffffffffffffffff8111156106c457600080fd5b6106d087828801610492565b935050604085013567ffffffffffffffff8111156106ed57600080fd5b6106f987828801610492565b925050606085013567ffffffffffffffff81111561071657600080fd5b61072287828801610492565b91505092959194509250565b6000825161074081846020870161055e565b9190910192915050565b600181811c9082168061075e57607f821691505b60208210810361077e57634e487b7160e01b600052602260045260246000fd5b50919050565b601f8211156107ce57806000526020600020601f840160051c810160208510156107ab5750805b601f840160051c820191505b818110156107cb57600081556001016107b7565b50505b505050565b815167ffffffffffffffff8111156107ed576107ed61047c565b610801816107fb845461074a565b84610784565b6020601f821160018114610835576000831561081d5750848201515b600019600385901b1c1916600184901b1784556107cb565b600084815260208120601f198516915b828110156108655787850151825560209485019460019092019101610845565b50848210156108835786840151600019600387901b60f8161c191681555b50505050600190811b0190555056fea26469706673582212204b48e46c0d252017fb617eea9ab0ef7aaddd6fb525aa305cf14cd9cf2b28fb2a64736f6c634300081c0033",
  "immutableReferences": {},
  "source": "// SPDX-License-Identifier: MIT\r\npragma solidity ^0.8.0;\r\n\r\ncontract HealthRiskStorage {\r\n    struct HealthData {\r\n        string riskLevel;\r\n        string suggestion;\r\n        string timestamp;\r\n        string email;\r\n    }\r\n\r\n    address public admin;  \r\n    mapping(string => HealthData[]) private userHealthRecords; \r\n\r\n    modifier onlyAdmin() {\r\n        require(msg.sender == admin, \"Only admin can store data\");\r\n        _;\r\n    }\r\n\r\n    constructor() {\r\n        admin = msg.sender;\r\n    }\r\n\r\n    function storeHealthData(\r\n        string memory _email,\r\n        string memory _riskLevel,\r\n        string memory _suggestion,\r\n        string memory _timestamp\r\n    ) public onlyAdmin {  \r\n        userHealthRecords[_email].push(HealthData(_riskLevel, _suggestion, _timestamp, _email));\r\n    }\r\n\r\n    function getHealthData(string memory _email) public view returns (HealthData[] memory) {\r\n        return userHealthRecords[_email];\r\n    }\r\n}\r\n",
  "sourcePath": "X:\\CodeBits 3.0\\backend\\blockchain\\contracts\\HealthRiskStorage.sol",
  "compiler": {
    "name": "solc",
    "version": "0.8.28+commit.7893614a.Emscripten.clang"
  },
  "schemaVersion": "3.4.16",
  "updatedAt": "2025-03-04T20:26:01.450Z",
  "networkType": "ethereum",
  "devdoc": {
    "kind": "dev",
    "methods": {},
    "version": 1
  },
  "userdoc": {
    "kind": "user",
    "methods": {},
    "version": 1
  }
}